GT40 bootstrap	MACN11   V4.26T    3-Sep-81 11:09:19   PAGE 1
TTYBT.MAC;1

      1						.title	GT40 bootstrap
      2					; This code was shamelessly ripped off from the gt40 bootstrap, using a
      3					; disassembler for the 11.  Code pertaining to the display functions has
      4					; been deleted, and symbols have been provided by yours truly. Minor mods
      5					; made to make it position independent -- which unfortunately I did not
      6					; quite succeed at, so you have to link it at 170000 any way.... foo


      9		177560			rStat = 177560
     10		177562			rBuff = rstat + 2
     11		177564			tStat = rstat + 4
     12		177566			tBuff = rStat + 6

     14	000000'	000005			start:	RESET
     15	000002'	012737	000007	177560		MOV #7,@#rStat
     16	000010'	012706	007776			MOV #7776,SP
     17	000014'	005237	177564			INC @#tStat
     18	000020'	004367	000166			JSR R3,outTty
     19	000024'	   000	   000			.byte 0,0
     20	000026'	012703	000004			MOV #4,R3
     21	000032'	010700			s0100:	MOV PC, R0
     22	000034'	062700	000016			ADD #<main-.>,r0
     23	000040'	010023				MOV R0, (R3)+
     24	000042'	005023				CLR (R3)+
     25	000044'	005723			s0200:	tst (r3)+		; scan through memory non destructivly
     26	000046'	005723				tst (r3)+
     27	000050'	000775				BR s0200

     29	000052'	005743			main:	TST -(R3)
     30	000054'	010306				MOV R3,SP
     31	000056'	105737	177564		m0100:	TSTB @#tStat
     32	000062'	100375				BPL m0100
     33	000064'	005037	177564			CLR @#tStat

     35	000070'	052706	007776		STREST:	BIS #7776,SP  		; reset the stack (come here on major errors)
     36	000074'	004767	000032		st0100:	JSR PC,getTTY
     37	000100'	000775				BR St0100

     39	000102'	105737	177560		inTty:	TSTB @#rStat
     40	000106'	100375				BPL inTty
     41	000110'	113700	177562			MOVB @#rBuff,R0
     42	000114'	012737	000007	177560		MOV #7,@#rStat
     43	000122'	042700	177600			BIC #177600,R0
     44	000126'	001765				BEQ inTty
     45	000130'	000207				RTS PC

     47	000132'	004767	177744		getTTY:	JSR PC,inTty
     48	000136'	020027	000175			CMP R0,#175
     49	000142'	001022				BNE gtRet
     50	000144'	004767	177732			JSR PC,inTty
     51	000150'	020027	000114			CMP R0,#114
     52	000154'	001476				BEQ load
     53	000156'	020027	000122			CMP R0,#122
     54	000162'	001012				BNE gtRet
GT40 bootstrap	MACN11   V4.26T    3-Sep-81 11:09:19   PAGE 2
TTYBT.MAC;1

     55	000164'	000167	177700		badByt:	JMP stRest

     57	000170'	004767	177736		getChk:	JSR PC,getTTY
     58	000174'	020027	000040			CMP R0,#40
     59	000200'	002514				BLT badRea
     60	000202'	020027	000137			CMP R0,#137
     61	000206'	003111				BGT badRea
     62	000210'	000207			gtRet:	RTS PC

     64	000212'	112337	177566		outTty:	MOVB (R3)+,@#tBuff
     65	000216'	112337	177566			MOVB (R3)+,@#tBuff
     66	000222'	000203				RTS R3

     68	000224'	004767	177740		get8:	JSR PC,getChk
     69	000230'	010046				MOV R0,-(SP)
     70	000232'	005723				TST (R3)+
     71	000234'	000163	000236'			JMP tab-2(R3)
     72	000240'	000404			tab:	BR case1
     73	000242'	000416				BR case2
     74	000244'	000432				BR case3
     75	000246'	012703	000002			MOV #2,R3
     76	000252'	004767	177712		case1:	JSR PC,getChk
     77	000256'	010004				MOV R0,R4
     78	000260'	006300				ASL R0
     79	000262'	006300				ASL R0
     80	000264'	106300				ASLB R0
     81	000266'	106116				ROLB (SP)
     82	000270'	106300				ASLB R0
     83	000272'	106116				ROLB (SP)
     84	000274'	012600				MOV (SP)+,R0
     85	000276'	000207				RTS PC

     87	000300'	006300			case2:	ASL R0
     88	000302'	006300				ASL R0
     89	000304'	106300				ASLB R0
     90	000306'	106104				ROLB R4
     91	000310'	106300				ASLB R0
     92	000312'	106104				ROLB R4
     93	000314'	106300				ASLB R0
     94	000316'	106104				ROLB R4
     95	000320'	106300				ASLB R0
     96	000322'	106104				ROLB R4
     97	000324'	010400				MOV R4,R0
     98	000326'	012604				MOV (SP)+,R4
     99	000330'	000207				RTS PC

    101	000332'	006100			case3:	ROL R0
    102	000334'	106100				ROLB R0
    103	000336'	006004				ROR R4
    104	000340'	106000				RORB R0
    105	000342'	006004				ROR R4
    106	000344'	106000				RORB R0
    107	000346'	005726				TST (SP)+
    108	000350'	000207				RTS PC
GT40 bootstrap	MACN11   V4.26T    3-Sep-81 11:09:19   PAGE 3
TTYBT.MAC;1


    110	000352'	005003			load:	CLR R3
    111	000354'	005005			ld0100:	CLR R5
    112	000356'	004767	000064			JSR PC,gtByte
    113	000362'	105300				DECB R0
    114	000364'	001373				BNE ld0100
    115	000366'	004767	000054			JSR PC,gtByte
    116	000372'	004767	000062			JSR PC,gtWord
    117	000376'	010002				MOV R0,R2
    118	000400'	162702	000004			SUB #4,R2
    119	000404'	022702	000002			CMP #2,R2
    120	000410'	001433				BEQ ld0350
    121	000412'	004767	000042			JSR PC,gtWord
    122	000416'	010001				MOV R0,R1
    123	000420'	004767	000022		ld0200:	JSR PC,gtByte
    124	000424'	002006				BGE ld0300
    125	000426'	105705				TSTB R5
    126	000430'	001751				BEQ ld0100

    128	000432'	004367	177554		badRea:	JSR R3,outTty
    129	000436'	   175	   102			.byte 175,102
    130	000440'	000651				BR badByt

    132	000442'	110021			ld0300:	MOVB R0,(R1)+
    133	000444'	000765				BR ld0200

    135	000446'	004767	177552		gtByte:	JSR PC,get8
    136	000452'	060005				ADD R0,R5
    137	000454'	005302				DEC R2
    138	000456'	000207				RTS PC

    140	000460'	004767	177762		gtWord:	JSR PC,gtByte
    141	000464'	010046				MOV R0,-(SP)
    142	000466'	004767	177754			JSR PC,gtByte
    143	000472'	000300				SWAB R0
    144	000474'	052600				BIS (SP)+,R0
    145	000476'	000207				RTS PC

    147	000500'	004767	177754		ld0350:	JSR PC,gtWord
    148	000504'	010046				MOV R0,-(SP)
    149	000506'	004767	177734			JSR PC,gtByte
    150	000512'	105705				TSTB R5
    151	000514'	001346				BNE badRea
    152	000516'	004367	177470			JSR R3,outTty
    153	000522'	   175	   107			.byte 175,107
    154	000524'	032716	000001			BIT #1,(SP)
    155	000530'	001401				BEQ ld0400
    156	000532'	000000				HALT
    157	000534'	000136			ld0400:	JMP @(SP)+

    159		000000'				.end	start
GT40 bootstrap	MACN11   V4.26T    3-Sep-81 11:09:19   PAGE 4
TTYBT.MAC;1	Symbol table

BADBYT   000164R 	BADREA   000432R 	CASE1    000252R 	CASE2    000300R
CASE3    000332R 	GETCHK   000170R 	GETTTY   000132R 	GET8     000224R
GTBYTE   000446R 	GTRET    000210R 	GTWORD   000460R 	INTTY    000102R
LD0100   000354R 	LD0200   000420R 	LD0300   000442R 	LD0350   000500R
LD0400   000534R 	LOAD     000352R 	MAIN     000052R 	M0100    000056R
OUTTTY   000212R 	PC     =%000007  	RBUFF  = 177562  	RSTAT  = 177560
R0     =%000000  	R1     =%000001  	R2     =%000002  	R3     =%000003
R4     =%000004  	R5     =%000005  	R6     =%000006  	R7     =%000007
SP     =%000006  	START    000000R 	STREST   000070R 	ST0100   000074R
S0100    000032R 	S0200    000044R 	TAB      000240R 	TBUFF  = 177566
TSTAT  = 177564  	.MACN. = 000004  	.VRSN. = 000001  	.      = 000536R


GT40 bootstrap	MACN11   V4.26T    3-Sep-81 11:09:19   PAGE 5
TTYBT.MAC;1


 Errors detected: 0

 *,tthbt_ttybt
 Run-time:  1 seconds

