GT40 bootstrap	MACN11   V4.26T   14-Sep-82 14:26:49   PAGE 1
TTYBT.MAC;3

      1						.title	GT40 bootstrap

      3					; 11/4/81  EJS -- Don't test for real memory past 28K

      5					; This code was shamelessly ripped off from the gt40 bootstrap, using a
      6					; disassembler for the 11.  Code pertaining to the display functions has
      7					; been deleted, and symbols have been provided by yours truly. Minor mods
      8					; made to make it position independent -- which unfortunately I did not
      9					; quite succeed at, so you have to link it at 170000 any way.... foo


     12		177560			rStat == 177560
     13		177562			rBuff == rstat + 2
     14		177564			tStat == rstat + 4
     15		177566			tBuff == rStat + 6
     16						.globl 	start
     17	000000'	000005			start:	RESET
     18	000002'	012737	000007	177560		MOV #7,@#rStat
     19	000010'	012706	007776			MOV #7776,SP
     20	000014'	005237	177564			INC @#tStat
     21	000020'	004367	000170			JSR R3,outTty
     22	000024'	   000	   000			.byte 0,0
     23	000026'	012703	000004			MOV #4,R3
     24	000032'	010700			s0100:	MOV PC, R0
     25	000034'	062700	000020			ADD #<main-.>,r0
     26	000040'	010023				MOV R0, (R3)+
     27	000042'	005023				CLR (R3)+
     28	000044'	005723			s0200:	tst (r3)+		; scan through memory non destructivly
     29	000046'	020327	157776			CMP r3,#157776
     30	000052'	001374				BNE S0200

     32	000054'	005743			main:	TST -(R3)
     33	000056'	010306				MOV R3,SP
     34	000060'	105737	177564		m0100:	TSTB @#tStat
     35	000064'	100375				BPL m0100
     36	000066'	005037	177564			CLR @#tStat

     38	000072'	052706	007776		STREST:	BIS #7776,SP  		; reset the stack (come here on major errors)
     39	000076'	004767	000032		st0100:	JSR PC,getTTY
     40	000102'	000775				BR St0100

     42	000104'	105737	177560		inTty:	TSTB @#rStat
     43	000110'	100375				BPL inTty
     44	000112'	113700	177562			MOVB @#rBuff,R0
     45	000116'	012737	000007	177560		MOV #7,@#rStat
     46	000124'	042700	177600			BIC #177600,R0
     47	000130'	001765				BEQ inTty
     48	000132'	000207				RTS PC

     50	000134'	004767	177744		getTTY:	JSR PC,inTty
     51	000140'	020027	000175			CMP R0,#175
     52	000144'	001022				BNE gtRet
     53	000146'	004767	177732			JSR PC,inTty
     54	000152'	020027	000114			CMP R0,#114
GT40 bootstrap	MACN11   V4.26T   14-Sep-82 14:26:49   PAGE 2
TTYBT.MAC;3

     55	000156'	001476				BEQ load
     56	000160'	020027	000122			CMP R0,#122
     57	000164'	001012				BNE gtRet
     58	000166'	000167	177700		badByt:	JMP stRest

     60	000172'	004767	177736		getChk:	JSR PC,getTTY
     61	000176'	020027	000040			CMP R0,#40
     62	000202'	002514				BLT badRea
     63	000204'	020027	000137			CMP R0,#137
     64	000210'	003111				BGT badRea
     65	000212'	000207			gtRet:	RTS PC

     67	000214'	112337	177566		outTty:	MOVB (R3)+,@#tBuff
     68	000220'	112337	177566			MOVB (R3)+,@#tBuff
     69	000224'	000203				RTS R3

     71	000226'	004767	177740		get8:	JSR PC,getChk
     72	000232'	010046				MOV R0,-(SP)
     73	000234'	005723				TST (R3)+
     74	000236'	000163	000240'			JMP tab-2(R3)
     75	000242'	000404			tab:	BR case1
     76	000244'	000416				BR case2
     77	000246'	000432				BR case3
     78	000250'	012703	000002			MOV #2,R3
     79	000254'	004767	177712		case1:	JSR PC,getChk
     80	000260'	010004				MOV R0,R4
     81	000262'	006300				ASL R0
     82	000264'	006300				ASL R0
     83	000266'	106300				ASLB R0
     84	000270'	106116				ROLB (SP)
     85	000272'	106300				ASLB R0
     86	000274'	106116				ROLB (SP)
     87	000276'	012600				MOV (SP)+,R0
     88	000300'	000207				RTS PC

     90	000302'	006300			case2:	ASL R0
     91	000304'	006300				ASL R0
     92	000306'	106300				ASLB R0
     93	000310'	106104				ROLB R4
     94	000312'	106300				ASLB R0
     95	000314'	106104				ROLB R4
     96	000316'	106300				ASLB R0
     97	000320'	106104				ROLB R4
     98	000322'	106300				ASLB R0
     99	000324'	106104				ROLB R4
    100	000326'	010400				MOV R4,R0
    101	000330'	012604				MOV (SP)+,R4
    102	000332'	000207				RTS PC

    104	000334'	006100			case3:	ROL R0
    105	000336'	106100				ROLB R0
    106	000340'	006004				ROR R4
    107	000342'	106000				RORB R0
    108	000344'	006004				ROR R4
GT40 bootstrap	MACN11   V4.26T   14-Sep-82 14:26:49   PAGE 3
TTYBT.MAC;3

    109	000346'	106000				RORB R0
    110	000350'	005726				TST (SP)+
    111	000352'	000207				RTS PC

    113	000354'	005003			load:	CLR R3
    114	000356'	005005			ld0100:	CLR R5
    115	000360'	004767	000064			JSR PC,gtByte
    116	000364'	105300				DECB R0
    117	000366'	001373				BNE ld0100
    118	000370'	004767	000054			JSR PC,gtByte
    119	000374'	004767	000062			JSR PC,gtWord
    120	000400'	010002				MOV R0,R2
    121	000402'	162702	000004			SUB #4,R2
    122	000406'	022702	000002			CMP #2,R2
    123	000412'	001433				BEQ ld0350
    124	000414'	004767	000042			JSR PC,gtWord
    125	000420'	010001				MOV R0,R1
    126	000422'	004767	000022		ld0200:	JSR PC,gtByte
    127	000426'	002006				BGE ld0300
    128	000430'	105705				TSTB R5
    129	000432'	001751				BEQ ld0100

    131	000434'	004367	177554		badRea:	JSR R3,outTty
    132	000440'	   175	   102			.byte 175,102
    133	000442'	000651				BR badByt

    135	000444'	110021			ld0300:	MOVB R0,(R1)+
    136	000446'	000765				BR ld0200

    138	000450'	004767	177552		gtByte:	JSR PC,get8
    139	000454'	060005				ADD R0,R5
    140	000456'	005302				DEC R2
    141	000460'	000207				RTS PC

    143	000462'	004767	177762		gtWord:	JSR PC,gtByte
    144	000466'	010046				MOV R0,-(SP)
    145	000470'	004767	177754			JSR PC,gtByte
    146	000474'	000300				SWAB R0
    147	000476'	052600				BIS (SP)+,R0
    148	000500'	000207				RTS PC

    150	000502'	004767	177754		ld0350:	JSR PC,gtWord
    151	000506'	010046				MOV R0,-(SP)
    152	000510'	004767	177734			JSR PC,gtByte
    153	000514'	105705				TSTB R5
    154	000516'	001346				BNE badRea
    155	000520'	004367	177470			JSR R3,outTty
    156	000524'	   175	   107			.byte 175,107
    157	000526'	032716	000001			BIT #1,(SP)
    158	000532'	001401				BEQ ld0400
    159	000534'	000000				HALT
    160	000536'	000136			ld0400:	JMP @(SP)+

    162		000001				.end
GT40 bootstrap	MACN11   V4.26T   14-Sep-82 14:26:49   PAGE 4
TTYBT.MAC;3	Symbol table

BADBYT   000166R 	BADREA   000434R 	CASE1    000254R 	CASE2    000302R
CASE3    000334R 	GETCHK   000172R 	GETTTY   000134R 	GET8     000226R
GTBYTE   000450R 	GTRET    000212R 	GTWORD   000462R 	INTTY    000104R
LD0100   000356R 	LD0200   000422R 	LD0300   000444R 	LD0350   000502R
LD0400   000536R 	LOAD     000354R 	MAIN     000054R 	M0100    000060R
OUTTTY   000214R 	PC     =%000007  	RBUFF  = 177562 G	RSTAT  = 177560 G
R0     =%000000  	R1     =%000001  	R2     =%000002  	R3     =%000003
R4     =%000004  	R5     =%000005  	R6     =%000006  	R7     =%000007
SP     =%000006  	START    000000RG	STREST   000072R 	ST0100   000076R
S0100    000032R 	S0200    000044R 	TAB      000242R 	TBUFF  = 177566 G
TSTAT  = 177564 G	.MACN. = 000004  	.VRSN. = 000003  	.      = 000540R


GT40 bootstrap	MACN11   V4.26T   14-Sep-82 14:26:49   PAGE 5
TTYBT.MAC;3


 Errors detected: 0

 *,ttybt_ttybt
 Run-time:  1 seconds

